:020000020000FC
:0200000022C21A
:1000AC0000000000089500000000000000000000A7
:1000BC0000000000000000000000000000008A9515
:1000CC00803089F70895282F8AEFEDDF8AEFEBDF78
:1000DC008AEFE9DF8AEFE7DF2A952030A9F7089548
:1000EC008AEFF1DF8AEFEFDF8AEFEDDF8AEFEBDFEC
:1000FC00089557656C636F6D6520746F2044696358
:10010C00652100005400526F6C6C696E672E2E2EA8
:10011C000000486F6C642027322720746F20726FA8
:10012C006C6C000056616C75653A200081BB5F9A5F
:10013C00B7DF5F9808955E98F9DF8295F7DF8DE25F
:10014C00B2DF08955E9AF2DF8295F0DF8DE2ABDFCD
:10015C00089584E1B8DF5E9880E3E8DF8AE0B3DFDE
:10016C0080E3E4DF8AE0AFDF80E3E0DF8AE0ABDF4F
:10017C0080E2DCDF8DE297DF88E2DDDF8EE0DBDF23
:10018C0081E0D9DF82E09FDF86E0D5DF089581E052
:10019C00D2DF99DF0895002785910491D3DF82E3A4
:1001AC0092DF0030C9F70895FFCFF4E0E0E6E80FE6
:1001BC0080E0F81F8491089540E0342F330F330F03
:1001CC00330F330F0000000000000000000000009F
:1001DC000000000000000000000000000000000013
:1001EC000000000035B986E06EDF669904C04395C7
:1001FC004C3019F74FE0842FD8DF0895F0E0EEEF84
:10020C00CADF8AEF60DF5FDF5EDF5DDFC0DF19C052
:10021C00BEDFF1E0E2E1BFDF16E000000000CCDF62
:10022C00823329F0B4DFF1E0E0E3B5DF03C01A95C7
:10023C0099F3F3CF812FE0D0805D84DF51DF8827E5
:10024C0000C0A5DFF1E0EEE1A6DF4ADFB5DF8F30BD
:10025C00C1F38233E9F2833329F0893329F08833EF
:10026C0029F0F4CF55D0EDCFAED0EBCF8BD038DF1B
:10027C00E8CF436C656172696E672E2E2E00546F49
:10028C0074616C207468726F77733A004E627220DE
:10029C006F66203127733A004E6272206F662032EF
:1002AC0027733A004E6272206F66203327733A0030
:1002BC004E6272206F66203427733A004E627220B1
:1002CC006F66203527733A004E6272206F662036B7
:1002DC0027733A00A2D00895303132333435363793
:1002EC003839414243444546F2E0E4EE582E8295BB
:1002FC008F70E80F6624F61D849124DF852D8F7096
:10030C00E4EEF2E0E80F6624F61D84911BDF0895FD
:10031C003EDFF2E0EAE83FDF80E078D0E5DFE0DEC8
:10032C0036DFF2E0E8E937DF81E070D0DDDFD8DEE0
:10033C002EDFF2E0E4EA2FDF82E068D0D5DFD0DEFA
:10034C0026DFF2E0E0EB27DF83E060D0CDDFC8DE14
:10035C001EDFF2E0ECEB1FDF84E058D0C5DFC0DE1F
:10036C0016DFF2E0E8EC17DF85E050D0BDDFB8DE39
:10037C000EDFF2E0E4ED0FDF86E048D0B5DFB0DE53
:10038C0006DF089504DFF2E0EEE705DF46D00895BE
:10039C004D6F6E69746F720008950EDF8A3249F0EA
:1003AC00833239F08F3011F4382EF7CF8315A9F33F
:1003BC00382E08958EE3C6DE8B2F96DF8A2F94DFBE
:1003CC008AE3C0DE0895E3DEF3E0ECE9E4DE88DEE8
:1003DC00B1E0A0E0DCDEEEDF8D9186DFDEDF8A327D
:1003EC0051F0833229F0E1DE8053B82FAA27F2CFE7
:1003FC0088EC69DEEFCF0895B1E0A0E03C91339535
:10040C003C93A10F1C9113951C930895B1E0A0E0AF
:10041C00A80F80E0B81F8C91089500E000930001B4
:10042C000093010100930201009303010093040166
:10043C00009305010093060108950FEF0DBF0AE02C
:10044C000EBF0FD00E94AF000E94D2010E9470011B
:10045C008CE071DE3134372A32353830333639237B
:10046C001CC00FEF0AB900BB04B900E00DB9089528
:10047C000E94E2008F30E1F38A3069F08B3059F042
:10048C00182F805D5FDE1FDE97DE8117E9F3F0CF5A
:0E049C000000000002C0895FF4CFB0CEFECF9A
:00000001FF
